:100000003EC058C057C056C055C054C053C052C05F
:1000100051C050C04FC04EC04DC04CC04BC04AC074
:1000200049C048C047C0F3C1B8C0A7C092C094C07F
:1000300098C09AC09BC0A0C0A3C0A8C0B4C0B3C0A1
:10004000B2C0B1C0B0C0AFC0AEC055C05AC05EC033
:1000500061C062C065C067C079C067C069C076C052
:100060009FC069C068C069C06AC09DC083C07CC0B1
:100070008AC068C067C097C069C089C06AC01124BF
:100080001FBECFEFD1E0DEBFCDBF11E0A0E0B1E0F9
:10009000ECE3F5E002C005900D92A832B107D9F764
:1000A00011E0A8E2B1E001C01D92A534B107E1F76B
:1000B00003D142C2A5CFFC0180E090E011920196ED
:1000C00084319105D9F708955F9A439A419A429AEB
:1000D0002C9A289A5B9A409A08951F93182FF4DF60
:1000E000812F90E0FC01F097EB32F10508F05BC046
:1000F000EC5EFF4F09942C9828985F98439841989C
:100100004AC02C98289841985B9802C05B982C981C
:10011000429849C0439811C05F9828982C981FC0F6
:100120005F98289827C05F983AC05F9843983BC073
:100130005F98439807C041981DC041981AC05F98C6
:10014000439822C0419842982C982DC043984198DA
:100150001BC05F9843980DC05F98439841984298A0
:100160001AC04398419816C05F9812C05F98419892
:10017000289842982C980FC05F984398419813C0D4
:100180005F984398419842982C9804C05F98439890
:100190004198429828985B9806C05F984398419888
:1001A00042982C9828981F910895813069F08130E9
:1001B00028F0823071F08330B9F411C029982A9860
:1001C0002B985E9A8BB108955E982A982B98299A5D
:1001D00004C05E9829982B982A9A85B108955E9854
:1001E00029982A982B9A85B10895EF92FF921F9330
:1001F000CF93DF93EC0190E080E4E82E8FE1F82EBE
:1002000011C0192F1F5F892FD0DF899166DF888188
:100210008E3211F440982196C7010197F1F71430FE
:1002200021F0912F8881882361F7DF91CF911F9171
:10023000FF90EF900895BC0180E491E076D108959D
:1002400090E0887F907080339105B1F08133910503
:100250002CF4009729F1809741F509C08834910565
:1002600081F0883F9105B9F0C897F9F40FC080E498
:1002700091E060E071E01DC080E491E065E071E034
:1002800018C080E491E06AE071E013C080E491E07E
:100290006FE071E00EC080E491E064E171E009C0BC
:1002A00080E491E069E171E004C080E491E06EE1F6
:1002B00071E03BD181D00895CF92DF92FF920F93EE
:1002C0001F93DF93CF93CDB7DEB764970FB6F89443
:1002D000DEBF0FBECDBF8AB18FEF8AB994B184B9AA
:1002E00097B187B988B1806388B9FE01319695E1ED
:1002F000C92ED12CCC0EDD1E1192EC15FD05E1F7B7
:1003000089E02BD0789458D08E010F5F1F4FC80121
:1003100062E271E00AD1F02E012F27D0882389F400
:10032000809128018370833061F48F2D902FFC0120
:100330001192EC15FD05E1F78F2D902F64E14BD064
:1003400004D08F2D902F51DFE8CFEAE2F1E0119237
:1003500081E0EE33F807D9F708958093BA0084E07E
:100360008093BC001092290108958091290108957D
:10037000809129018111FCCF80912701089520915E
:1003800029012111FCCF60933E01FC018AE291E03A
:10039000DC0102C021912D932A2F281B2617D0F3B0
:1003A0001092280188EF8093270185E48093BC0098
:1003B00081E0809329010895809129018111FCCF6A
:1003C0001092280188EF8093270185E48093BC0078
:1003D000109229010895209129012111FCCF20912B
:1003E000280120FF10C02AE231E0FC01D90102C03F
:1003F0008D9181938A2F821B8617D0F380912801DB
:100400008D7F8093280180912801817008951F922B
:100410000F920FB60F9211248F939F93EF93FF9338
:100420008091B900803909F454C088F48037F1F123
:1004300038F4882309F45FC0803609F064C03BC0FB
:10044000803809F446C0883809F05DC054C0883A45
:1004500089F038F4883909F44EC0803A09F053C065
:1004600056C0803CB9F0883C09F445C0883B09F08F
:100470004AC003C010923F014FC080913F01E82F56
:10048000F0E0E65DFE4F90819093BB008F5F80931C
:100490003F0118C090913F0180913E01981333C0F5
:1004A0008091280181608093280131C080912801CA
:1004B00084608093280180912801826080932801C4
:1004C00010923F0185EC8093BC0081E0809329016C
:1004D00023C080913F019091BB00E82FF0E0E65DE2
:1004E000FE4F90838F5F80933F0180912801816050
:1004F00080932801E7CF8091B9008093270180E99C
:100500008093BC0009C08091B9008093270185ECDD
:100510008093BC0010922901FF91EF919F918F91E0
:100520000F900FBE0F901F901895FB01DC010190FA
:0C0530000D920020E1F70895F894FFCF31
:10053C0054414E410054444E410052414E41004101
:10054C0052424C004E5354410042455252004552C7
:08055C0052004832333400F86C
:00000001FF
