:1000000012C02CC02BC02AC029C028C027C026C0BF
:1000100025C024C023C032C021C020C01FC01EC0C4
:100020001DC01CC01BC011241FBECFE5D4E0DEBF25
:10003000CDBF10E0A0E6B0E0E2E5F0E102C005903F
:100040000D92A437B107D9F710E0A4E7B0E001C0E2
:100050001D92A73DB107E1F79FD3F9C7D1CF2FEF8D
:1000600020939600209196002093950090BD89B929
:1000700086E880BD88E98AB9789408951F920F9226
:100080000FB60F9211242F933F934F938F939F930B
:10009000EF93FF934CB1809196008F3321F48091C0
:1000A0009500882371F08091960020919500992702
:1000B00087FD90950196332727FD3095821793078A
:1000C00059F4809195008F5F809395008091950001
:1000D000803411F410929500809196008F3319F4BA
:1000E0001092960005C0809196008F5F80939600D5
:1000F000E0919600FF27E7FDF095E956FF4F40831A
:10010000809195008F3F11F410929500FF91EF912F
:100110009F918F914F913F912F910F900FBE0F9014
:100120001F901895809195008F3F11F4E0E021C059
:10013000E0919500FF27E7FDF095E956FF4FE0813C
:100140009091950080919600981741F48FEF8093DD
:10015000960080919600809395000BC08091950049
:100160008F5F8093950080919500803411F41092F8
:1001700095008E2F08955D9BFECF8CB908958091D8
:1001800095008F3F11F490E01AC0909195008091F6
:100190009600981734F490919600809195009F5F97
:1001A0000DC09091950080919600891714F091E010
:1001B00006C090919600809195009F5B981B892FB7
:1001C0000895FC0104C05D9BFECF8CB931968081FF
:1001D0008823C9F70895EF92FF920F931F93CF934F
:1001E000DF937C018B01C0E0D0E006C09BDFF7010C
:1001F000EC0FFD1F80832196C017D107B8F3DF9164
:10020000CF911F910F91FF90EF90089501C08ADF69
:10021000B6DF8823E1F708950F931F93CF93DF9301
:10022000EC012FEF3FEFA0E0B0E001E010EA16C0D4
:10023000FE01EA0FFB1F808190E02827392788E024
:1002400090E0A9015695479520FF04C09A01202708
:10025000312701C09A010197A1F71196A617B70798
:100260003CF3C901DF91CF911F910F91089584E86C
:100270008093820082E08093840081E890E063E0D4
:1002800070E0CADF8093850090938600E1E8F0E09B
:1002900080815D9BFECF8CB9319680E0E738F8070E
:1002A000B9F7089580588093820081E0809384009C
:1002B00081E890E063E070E0AFDF80938500909389
:1002C0008600E1E8F0E080815D9BFECF8CB931963D
:1002D00080E0E738F807B9F7089580E49CE90197D2
:1002E000F1F7AB98089520E030E0FC01E20FF31F36
:1002F00010822F5F3F4F2A303105B9F708952F92B2
:100300003F924F925F926F927F928F929F92AF92A5
:10031000BF92EF92FF920F931F93DF93CF93CDB7CE
:10032000DEB766970FB6F894DEBF0FBECDBF9E0155
:100330002B5F3F4F388B2F87F9015901CE010F9664
:100340009E8B8D8B11922D893E89E217F307D1F791
:10035000C50160E670E016D6E4D37B018C01F3D3CF
:10036000698B7A8B8B8B9C8BC801B701B7D41B012F
:100370002C017093750060937400C801B70120E0F0
:1003800030E048EC52E469D5A9D4DC01CB0144E665
:10039000E42EF12C2E9CB0012F9C700D3E9C700D14
:1003A0001124BED56AE070E0BBD5709377006093EE
:1003B000760069897A898B899C8990D43B014C01AC
:1003C000709379006093780069897A898B899C8918
:1003D00020E030E048EC52E440D580D4DC01CB0191
:1003E0006E9CB0016F9C700D7E9C700D112498D591
:1003F0006AE070E095D570937B0060937A008091FD
:1004000070008E010F5F1F4F833451F4C101B5019D
:100410004AE050E0D8D5809176009091770009C0ED
:10042000C301B5014AE050E0CED580917A009091A9
:100430007B00B8014AE050E0C6D5C50164E670E033
:1004400096D5C501B80193D5C29A68D27BD28823CC
:1004500009F042C088E096D28091700093D28091DA
:1004600070008334E1F48E010B5F1F4FC80166E614
:1004700070E08FD51DC0C80160E670E083D58D8126
:1004800081D28E817FD28F817DD288857BD21A8660
:1004900080E078D280917000833479F40CC0853587
:1004A00071F78E010B5F1F4FC8016BE670E071D5CD
:1004B000009709F7E4CF85E501C083E480937000DD
:1004C0004AD2EF85F8891192F88BEF872D893E8902
:1004D000E217F307B1F709C0AB9A80E29EE4FC0192
:1004E0003197F1F7AB980197F1F788B394E089273A
:1004F00088BB66960FB6F894DEBF0FBECDBFCF9116
:10050000DF911F910F91FF90EF90BF90AF909F9060
:100510008F907F906F905F904F903F902F900895B5
:100520008BE090E060917E0075D58CE090E060916A
:10053000730070D5089581E090E0609171006AD5F4
:1005400082E090E06091720065D508950F931F934B
:10055000CF93DF93EC0185B398E0892785BB00E456
:100560001CE9C8010197F1F78881853009F0DFC0E7
:100570004981443009F468C0463089F58B81813067
:10058000A9F48C81809371008D8180937200D3DFF8
:1005900080E090E0FE01E80FF91FE0815D9BFECF57
:1005A000ECB9019688309105A9F7BCC08230A9F456
:1005B0008C8180937E008D8180937300B1DF80E019
:1005C00090E0FE01E80FF91FE0815D9BFECFECB9E2
:1005D000019688309105A9F7A5C086E032C0433066
:1005E00079F540938C0082E080938D008B8181307F
:1005F00039F48091710080938E008091720006C062
:1006000080917E0080938E008091730080938F0094
:100610008BE890E065E070E0FFDD809390009093C0
:100620009100EBE8F0E080815D9BFECF8CB93196C4
:1006300080E0E239F807B9F784E080938C0072C05B
:10064000842F30DEC80170C08A81882331F00FDE2C
:10065000AB98C8010197F1F76AC09B81892F81503F
:10066000823010F022E052C08C81923061F48823F5
:1006700079F48D81813061F490938D002091780020
:100680003091790010C0882319F48D81833010F0E7
:10069000EEDD48C020917400309175008130B1F4D6
:1006A00082E080938D00832F992787FD9A95809310
:1006B0008E0020938F008BE890E065E070E0ACDD69
:1006C000809390009093910027E020C040938D008C
:1006D000832F992787FD9A9580938E0020938F0012
:1006E0002091780030917900832F992787FD9A9582
:1006F00080939000209391008BE890E067E070E099
:100700008BDD809392009093930029E080E090E04D
:10071000FC01E557FF4FE0815D9BFECFECB90196F0
:100720008217B0F380E49CE90197F1F7AB98DF9171
:10073000CF911F910F9108951F938BE090E062D4A9
:10074000182F80937E008CE090E05CD4809373003F
:100750001F3F11F410927E008F3F19F484E68093BE
:1007600073001F9108951F9381E090E04BD4182FE0
:100770008093710082E090E045D4982F80937200BE
:100780001F3F19F48AE0809371009F3F19F483E2C0
:10079000809372001F9108956F927F928F929F9223
:1007A000AF92BF92CF92DF92EF92FF920F931F937F
:1007B000DF93CF93CDB7DEB72A970FB6F894DEBF9D
:1007C0000FBECDBF85E08093810080938B0084E0D5
:1007D00080938C0087E690E042DC85B3806385BB24
:1007E000A39AAB9887B3866087BBC198C298A4DFF1
:1007F000BADF89D010E9612E11E0712E7E010894D4
:10080000E11CF11CB2E0AB2EB12CAC0EBD1EA9E078
:10081000CA2ED12CCC0EDD1EF0EE8F2EFEE29F2EC6
:10082000C3010197F1F7ABDC8823A1F1870114C064
:1008300079DCF8018193EA15FB0511F08F0103C003
:100840008981813F28F0C016D10618F4DFDC0AC088
:100850008501C4010197F1F792DC882349F70C1553
:100860001D05C0F0C70166E070E0D6DCAC019C015C
:1008700030708F8190E02817390761F4252F3327D6
:10088000888590E02817390729F48981853011F48B
:10089000C7015CDEBBDC80917C0090917D000196FD
:1008A00090937D0080937C0080529E440CF4B8CFDE
:1008B00026DD20917400309175008091710090E0E8
:1008C00028173907B4F08091720090E082179307DF
:1008D00084F0209178003091790080917E0090E042
:1008E0002817390734F08091730090E0821793073E
:1008F0001CF4C19AC29A02C0C198C29810927D009D
:1009000010927C008DCF88E480B911B886B78460DE
:1009100086BF089586B78B7F86BF089584EA86BF19
:1009200080917F0025E304C0822F8A95F1F7892FFB
:1009300006B607FC04C0982F9F5F8436A8F3109278
:100940007F00089586B78095881F8827881F08959F
:1009500080918000089584E986BF80917F0025E31F
:1009600004C0822F8A95F1F7892F06B607FC04C0D0
:10097000982F9F5F8436A8F310927F0085E38A95B5
:10098000F1F7089583B984E886BF80917F0025E35D
:1009900004C0822F8A95F1F7892F06B607FC04C0A0
:1009A000982F9F5F8436A8F310927F0081B1883121
:1009B00079F081B1883261F081B1803449F081B140
:1009C000803211F080E0089580EB86BF80E20895C8
:1009D00081E00895FC01662319F086B7806402C0A7
:1009E00086B78F7B86BF86B7806886BF06B607FE50
:1009F000FDCF81B1887F883531F081B1887F803526
:100A000011F080E0089583B1808381E00895BC01F6
:100A100020E030E040E050E0E0E4FCE913C0939ACD
:100A2000CF010197F1F7220F331F80B390E0969525
:100A300087959695879581709070280F391F9398A8
:100A40004F5F5F4F4617570754F3C9010895BC0124
:100A50008A9A8B9A929A939A92989398939A929A46
:100A6000939840E850E020E030E0CA0186239723C5
:100A7000892B11F0929A01C09298939A9398559568
:100A800047952F5F3F4F2830310579F7939A8A9821
:100A900080B3939880B308958A9820E030E040E4D2
:100AA0005CE9CA010197F1F7829B05C02F5F3F4FB8
:100AB00024363105B1F708950F931F938A988B9AC6
:100AC00088E090E0A4DF182F00E08A9A929A92982A
:100AD000939A93988A9888E090E099DF082B192BD5
:100AE000C8011F910F9108958A9A8B9A929A939AAE
:100AF00093980895EF92FF920F931F9383E090E0F5
:100B0000A6DFCADFD9DF7C01EFDF0027F7FC009505
:100B1000102FC801B70115D11F910F91FF90EF90D1
:100B20000895E8DFDBD0882777FD8095982F09D1DD
:100B30002AE037ED43E25CE390D120E030E040E290
:100B400052E467D008956F927F928F929F92AF92F6
:100B5000BF92CF92DF92EF92FF920F931F9385E0A7
:100B600090E075DF99DFA8DF7C01BEDF0027F7FC8E
:100B70000095102FC801B701E4D07B018C01D1DFB3
:100B800020E030E048EC51E444D05B016C01C80146
:100B9000B7012CEA35EC47EA58E35FD12AE037ED9C
:100BA00043E25CE337D09B01AC01C601B50155D1EE
:100BB0003B014C01C801B70124E533EE45E25DE39A
:100BC0004CD120E030E040E850E423D05B016C01E0
:100BD000C801B70122EA37EE4BE356EB3ED1A8013C
:100BE00097013BD19B01AC01C601B50113D09B011C
:100BF000AC01C401B3010ED01F910F91FF90EF9093
:100C0000DF90CF90BF90AF909F908F907F906F902C
:100C100008955058BB27AA270ED0E5C0D6D030F093
:100C2000DBD020F031F49F3F11F41EF4CBC00EF462
:100C3000E095E7FBC1C0E92FE7D080F3BA17620760
:100C400073078407950718F071F49EF5FFC00EF442
:100C5000E0950B2EBA2FA02D0B01B90190010C01CC
:100C6000CA01A0011124FF27591B99F0593F50F4E4
:100C7000503E68F11A16F040A22F232F342F44273C
:100C8000585FF3CF469537952795A795F040539534
:100C9000C9F77EF41F16BA0B620B730B840BBAF004
:100CA0009150A1F0FF0FBB1F661F771F881FC2F76F
:100CB0000EC0BA0F621F731F841F48F48795779583
:100CC0006795B795F7959E3F08F0B3CF9395880F3A
:100CD00008F09927EE0F97958795089504D06894AA
:100CE000B111B5C0089598D088F09F5790F0B92FF2
:100CF0009927B751A0F0D1F0660F771F881F991F71
:100D00001AF0BA95C9F712C0B13081F09FD0B1E0A6
:100D100008959CC0672F782F8827B85F39F0B93FB6
:100D2000CCF3869577956795B395D9F73EF4909572
:100D30008095709561957F4F8F4F9F4F0895E894F0
:100D400009C097FB3EF490958095709561957F4F13
:100D50008F4F9F4F9923A9F0F92F96E9BB279395C1
:100D6000F695879577956795B795F111F8CFFAF4D1
:100D7000BB0F11F460FF1BC06F5F7F4F8F4F9F4F02
:100D800016C0882311F096E911C0772321F09EE860
:100D9000872F762F05C0662371F096E8862F70E0C6
:100DA00060E02AF09A95660F771F881FDAF7880FA0
:100DB0009695879597F9089597F99F6780E870E071
:100DC00060E008959FEF80EC089500240A941616C1
:100DD000170618060906089500240A941216130629
:100DE000140605060895092E0394000C11F48823B7
:100DF00052F0BB0F40F4BF2B11F460FF04C06F5FD3
:100E00007F4F8F4F9F4F089557FD9058440F551FA8
:100E100059F05F3F71F04795880F97FB991F61F07C
:100E20009F3F79F087950895121613061406551FF3
:100E3000F2CF4695F1DF08C0161617061806991F5F
:100E4000F1CF86957105610508940895E894BB2754
:100E500066277727CB0197F908950BD0C4CFB5DF6C
:100E600028F0BADF18F0952309F0A6CFABCF1124F4
:100E7000EECFCADFA0F3959FD1F3950F50E0551F39
:100E8000629FF001729FBB27F00DB11D639FAA27DF
:100E9000F00DB11DAA1F649F6627B00DA11D661F2E
:100EA000829F2227B00DA11D621F739FB00DA11D4F
:100EB000621F839FA00D611D221F749F3327A00D09
:100EC000611D231F849F600D211D822F762F6A2FA5
:100ED00011249F5750408AF0E1F088234AF0EE0F2A
:100EE000FF1FBB1F661F771F881F91505040A9F737
:100EF0009E3F510570F060CFAACF5F3FECF3983E64
:100F0000DCF3869577956795B795F795E7959F5F9D
:100F1000C1F7FE2B880F911D9695879597F9089537
:100F200097FB092E07260AD077FD04D00CD006D0F7
:100F300000201AF4709561957F4F0895F6F790950B
:100F400081959F4F0895AA1BBB1B51E107C0AA1FA3
:100F5000BB1FA617B70710F0A61BB70B881F991F5A
:100F60005A95A9F780959095BC01CD010895FB0194
:100F7000DC010D900020E9F7119701900D920020FF
:100F8000E1F70895FB01DC0101900D920020E1F7EB
:100F90000895FB0151915523A9F0BF01DC014D914A
:100FA00045174111E1F759F4CD010190002049F0B6
:100FB0004D9140154111C9F3FB014111EFCF81E083
:100FC00090E001970895FB019F01E8944230BCF046
:100FD0004532ACF44A3029F497FB1EF49095819584
:100FE0009F4F642F7727AFDF805D8A330CF0895DD8
:100FF0008193CB010097A9F716F45DE2519310821B
:10100000C90115C0E199FECF9FBB8EBBE09A99271D
:101010008DB30895262FE199FECF9FBB8EBB2DBBCC
:101020000FB6F894E29AE19A0FBE01960895DC019A
:10103000FC01672F71917723E1F7329704C07C910F
:101040006D9370836291AE17BF07C8F30895F8944B
:02105000FFCFD0
:10105200455252002E002D34322E002D31332E00F7
:04106200430A2364B6
:00000001FF
